:1000000039EF00F009500B02F3CF01F0F4CF00F00C
:100010000C02F35000260A500B02F3500020026E2F
:100020005EEF00F00950016A085C03E208C000F0CE
:100030000CD0006A080E0A6E083600360950005CC3
:10004000D8B0006E01360A2EF7D71200EA6A070E02
:10005000E96EEF500DE0060E016E006A002EFED72D
:10006000012EFBD77B0E006E002EFED7EF2EF3D7AE
:100070001200F86AD09EC180C182C184C196070E69
:10008000B46EC190C182C184C186C19CC28CC28E33
:10009000C18EC280D26A230E056EC284C2B4FED75E
:1000A000C4CF03F0C3CF07F0C4CF08F0C4CF0AF029
:1000B000C3CF09F00C6A640E0B6EA4D702C008F01F
:1000C0000230026E02323F0E021602C006F00550E8
:1000D000065C04E3946A020E8B6E03D0946A010EF0
:1000E0008B6E06C008F00A0E096E9CDF00501009E6
:1000F000956A8C6E0A0E076EA9DF06C008F00A0E1C
:10010000096E90DF01C008F00A0E096E8BDF005007
:100110002009956A8C6E0A0E076E98DFBED7030021
:020000040030CA
:0E00000000220E0E000081000FC00FE00F4026
:00000001FF
;PIC18F458
;CRC=4830  CREATED="17-févr.-17 18:12"
