:1000000030EF00F00850016A075C03E207C000F01F
:100010000CD0006A080E096E073600360850005CE6
:10002000D8B0006E0136092EF7D7120005506308CC
:1000300013E305C007F00A0E086EE4DF0138066E10
:10004000F00E061605C007F00A0E086EDBDF005042
:100050000624016E03D002D0630E016E3EEF00F065
:10006000F86AD09EC180C182C184C196070EB46E69
:10007000946A030E8B6E0F0E056ED8D7956A01C079
:040080008CFF0300EE
:020000040030CA
:0E00000000220E0E000081000FC00FE00F4026
:00000001FF
;PIC18F458
;CRC=2E8E  CREATED="12-févr.-17 20:52"
