:10000000BBEF00F009500B02F3CF01F0F4CF00F08A
:100010000C02F35000260A500B02F3500020026E2F
:10002000E6EF00F00750085C05E28B8294928B901B
:10003000949004D08B9294928B809490F4EF00F083
:100040000E50016A0D5C03E20DC000F00CD0006A96
:10005000080E0F6E0D3600360E50005CD8B0006EE4
:1000600001360F2EF7D71200EA6A080EE96EEF503C
:100070000DE0060E016E006A002EFED7012EFBD7A2
:100080007B0E006E002EFED7EF2EF3D7120007C0B6
:100090000DF00A0E0E6ED4DF00501009956A8C6EBA
:1000A0000A0E086EE1DF07C00DF00A0E0E6EC8DF03
:1000B00001502009956A8C6E0A0E086ED5DFF7EFA5
:1000C00000F0200E08A8300E096E07C000F007AE41
:1000D00008D0001E002A00C007F02D0E096E088E01
:1000E0000880015007C00DF0640E0E6EA9DF00C03D
:1000F00007F0300E01240A6E07C00DF00A0E0E6ED6
:100100009FDF300E00240C6E300E01240B6E09C0F0
:1001100000F0300E0A5C04E0088208BE088412D0A9
:1001200009C00AF0200E096E300E0B5C04E0088056
:1001300008BE088207D0D8A4088004E10AC00BF0EA
:10014000200E0A6E08B405D008B207D008B009D056
:100150000CD009509EA8FED7AD6E0A509EA8FED7BF
:10016000AD6E0B509EA8FED7AD6E0C509EA8FED76C
:10017000AD6EFCEF00F0F86AD09E150EAF6EA60EC5
:10018000AC6E900EAB6EC180C182C184C196070E69
:10019000B46EC190C182C184C186C19CC28CC28E22
:1001A000C18EC280D26A230E056EC284C2B4FED74D
:1001B000C4CF03F0C3CF07F0C4CF08F0C4CF0AF018
:1001C000C3CF09F00C6A640E0B6E1CD702C008F096
:1001D0000230026E02323F0E021602C006F006C066
:1001E00007F005C008F01ED706C007F050D706C0BC
:0C01F00007F0180E086E65D7D8D7030082
:020000040030CA
:0E00000000220E0E000081000FC00FE00F4026
:00000001FF
;PIC18F458
;CRC=3DC0  CREATED="03-mars-17 12:05"
